{
    "_format": "hh-sol-artifact-1",
    "contractName": "Counter",
    "sourceName": "contracts/Counter.sol",
    "address": "0x225f5a3DFE23Ec1D927AF24005059b25f423ED8A",
    "abi": [
        {
            "anonymous": false,
            "inputs": [
                {
                    "indexed": true,
                    "internalType": "address",
                    "name": "user",
                    "type": "address"
                },
                {
                    "indexed": false,
                    "internalType": "string",
                    "name": "username",
                    "type": "string"
                }
            ],
            "name": "UserSignedUp",
            "type": "event"
        },
        {
            "inputs": [
                {
                    "internalType": "string",
                    "name": "_username",
                    "type": "string"
                },
                {
                    "internalType": "string",
                    "name": "_password",
                    "type": "string"
                }
            ],
            "name": "signUp",
            "outputs": [],
            "stateMutability": "nonpayable",
            "type": "function"
        }
    ],
    "bytecode": "6080604052348015600e575f80fd5b506109b88061001c5f395ff3fe608060405234801561000f575f80fd5b5060043610610029575f3560e01c8063a469a3321461002d575b5f80fd5b6100476004803603810190610042919061040c565b610049565b005b5f82511161008c576040517f08c379a0000000000000000000000000000000000000000000000000000000008152600401610083906104dc565b60405180910390fd5b6004815110156100d1576040517f08c379a00000000000000000000000000000000000000000000000000000000081526004016100c89061056a565b60405180910390fd5b5f73ffffffffffffffffffffffffffffffffffffffff166001836040516100f891906105da565b90815260200160405180910390205f9054906101000a900473ffffffffffffffffffffffffffffffffffffffff1673ffffffffffffffffffffffffffffffffffffffff161461017c576040517f08c379a00000000000000000000000000000000000000000000000000000000081526004016101739061063a565b60405180910390fd5b815f803373ffffffffffffffffffffffffffffffffffffffff1673ffffffffffffffffffffffffffffffffffffffff1681526020019081526020015f2090816101c5919061085b565b50336001836040516101d791906105da565b90815260200160405180910390205f6101000a81548173ffffffffffffffffffffffffffffffffffffffff021916908373ffffffffffffffffffffffffffffffffffffffff1602179055508060025f3373ffffffffffffffffffffffffffffffffffffffff1673ffffffffffffffffffffffffffffffffffffffff1681526020019081526020015f20908161026c919061085b565b503373ffffffffffffffffffffffffffffffffffffffff167f8071c88b5ffc3db203631c8ac7a0061d708c0cf8e731d88cdb296b2c18d382a4836040516102b39190610962565b60405180910390a25050565b5f604051905090565b5f80fd5b5f80fd5b5f80fd5b5f80fd5b5f601f19601f8301169050919050565b7f4e487b71000000000000000000000000000000000000000000000000000000005f52604160045260245ffd5b61031e826102d8565b810181811067ffffffffffffffff8211171561033d5761033c6102e8565b5b80604052505050565b5f61034f6102bf565b905061035b8282610315565b919050565b5f67ffffffffffffffff82111561037a576103796102e8565b5b610383826102d8565b9050602081019050919050565b828183375f83830152505050565b5f6103b06103ab84610360565b610346565b9050828152602081018484840111156103cc576103cb6102d4565b5b6103d7848285610390565b509392505050565b5f82601f8301126103f3576103f26102d0565b5b813561040384826020860161039e565b91505092915050565b5f8060408385031215610422576104216102c8565b5b5f83013567ffffffffffffffff81111561043f5761043e6102cc565b5b61044b858286016103df565b925050602083013567ffffffffffffffff81111561046c5761046b6102cc565b5b610478858286016103df565b9150509250929050565b5f82825260208201905092915050565b7f557365726e616d652063616e6e6f7420626520656d70747900000000000000005f82015250565b5f6104c6601883610482565b91506104d182610492565b602082019050919050565b5f6020820190508181035f8301526104f3816104ba565b9050919050565b7f50617373776f7264206d757374206265206174206c65617374203420636861725f8201527f6163746572730000000000000000000000000000000000000000000000000000602082015250565b5f610554602683610482565b915061055f826104fa565b604082019050919050565b5f6020820190508181035f83015261058181610548565b9050919050565b5f81519050919050565b5f81905092915050565b8281835e5f83830152505050565b5f6105b482610588565b6105be8185610592565b93506105ce81856020860161059c565b80840191505092915050565b5f6105e582846105aa565b915081905092915050565b7f557365726e616d6520616c7265616479206578697374730000000000000000005f82015250565b5f610624601783610482565b915061062f826105f0565b602082019050919050565b5f6020820190508181035f83015261065181610618565b9050919050565b7f4e487b71000000000000000000000000000000000000000000000000000000005f52602260045260245ffd5b5f600282049050600182168061069c57607f821691505b6020821081036106af576106ae610658565b5b50919050565b5f819050815f5260205f209050919050565b5f6020601f8301049050919050565b5f82821b905092915050565b5f600883026107117fffffffffffffffffffffffffffffffffffffffffffffffffffffffffffffffff826106d6565b61071b86836106d6565b95508019841693508086168417925050509392505050565b5f819050919050565b5f819050919050565b5f61075f61075a61075584610733565b61073c565b610733565b9050919050565b5f819050919050565b61077883610745565b61078c61078482610766565b8484546106e2565b825550505050565b5f90565b6107a0610794565b6107ab81848461076f565b505050565b5b818110156107ce576107c35f82610798565b6001810190506107b1565b5050565b601f821115610813576107e4816106b5565b6107ed846106c7565b810160208510156107fc578190505b610810610808856106c7565b8301826107b0565b50505b505050565b5f82821c905092915050565b5f6108335f1984600802610818565b1980831691505092915050565b5f61084b8383610824565b9150826002028217905092915050565b61086482610588565b67ffffffffffffffff81111561087d5761087c6102e8565b5b6108878254610685565b6108928282856107d2565b5f60209050601f8311600181146108c3575f84156108b1578287015190505b6108bb8582610840565b865550610922565b601f1984166108d1866106b5565b5f5b828110156108f8578489015182556001820191506020850194506020810190506108d3565b868310156109155784890151610911601f891682610824565b8355505b6001600288020188555050505b505050505050565b5f61093482610588565b61093e8185610482565b935061094e81856020860161059c565b610957816102d8565b840191505092915050565b5f6020820190508181035f83015261097a818461092a565b90509291505056fea26469706673582212200dd0496eda7894356b405807e654682ab06d764ddedcd55ccbff2f6e9d44710364736f6c63430008190033",
    "linkReferences": {},
    "deployedLinkReferences": {}
}